{
  "_format": "hh-sol-artifact-1",
  "contractName": "BountyBasedNotes",
  "sourceName": "contracts/NotesMarketplace.sol",
  "abi": [
    {
      "inputs": [
        {
          "internalType": "address",
          "name": "token",
          "type": "address"
        }
      ],
      "name": "SafeERC20FailedOperation",
      "type": "error"
    },
    {
      "anonymous": false,
      "inputs": [
        {
          "indexed": true,
          "internalType": "uint256",
          "name": "requestId",
          "type": "uint256"
        },
        {
          "indexed": true,
          "internalType": "address",
          "name": "seller",
          "type": "address"
        },
        {
          "indexed": false,
          "internalType": "uint256",
          "name": "reward",
          "type": "uint256"
        }
      ],
      "name": "OfferAccepted",
      "type": "event"
    },
    {
      "anonymous": false,
      "inputs": [
        {
          "indexed": true,
          "internalType": "uint256",
          "name": "requestId",
          "type": "uint256"
        },
        {
          "indexed": true,
          "internalType": "address",
          "name": "seller",
          "type": "address"
        },
        {
          "indexed": false,
          "internalType": "string",
          "name": "link",
          "type": "string"
        }
      ],
      "name": "OfferSubmitted",
      "type": "event"
    },
    {
      "anonymous": false,
      "inputs": [
        {
          "indexed": true,
          "internalType": "address",
          "name": "student",
          "type": "address"
        },
        {
          "indexed": false,
          "internalType": "uint256",
          "name": "newAverage",
          "type": "uint256"
        }
      ],
      "name": "ReputationUpdated",
      "type": "event"
    },
    {
      "anonymous": false,
      "inputs": [
        {
          "indexed": true,
          "internalType": "uint256",
          "name": "requestId",
          "type": "uint256"
        },
        {
          "indexed": true,
          "internalType": "address",
          "name": "requester",
          "type": "address"
        },
        {
          "indexed": false,
          "internalType": "string",
          "name": "title",
          "type": "string"
        },
        {
          "indexed": false,
          "internalType": "uint256",
          "name": "reward",
          "type": "uint256"
        },
        {
          "indexed": true,
          "internalType": "address",
          "name": "token",
          "type": "address"
        }
      ],
      "name": "RequestCreated",
      "type": "event"
    },
    {
      "inputs": [
        {
          "internalType": "uint256",
          "name": "_requestId",
          "type": "uint256"
        },
        {
          "internalType": "uint256",
          "name": "_offerIndex",
          "type": "uint256"
        },
        {
          "internalType": "uint8",
          "name": "rating",
          "type": "uint8"
        }
      ],
      "name": "acceptOffer",
      "outputs": [],
      "stateMutability": "nonpayable",
      "type": "function"
    },
    {
      "inputs": [
        {
          "internalType": "address",
          "name": "",
          "type": "address"
        }
      ],
      "name": "completedTasks",
      "outputs": [
        {
          "internalType": "uint256",
          "name": "",
          "type": "uint256"
        }
      ],
      "stateMutability": "view",
      "type": "function"
    },
    {
      "inputs": [
        {
          "internalType": "string",
          "name": "_title",
          "type": "string"
        },
        {
          "internalType": "string",
          "name": "_description",
          "type": "string"
        },
        {
          "internalType": "address",
          "name": "_token",
          "type": "address"
        },
        {
          "internalType": "uint256",
          "name": "_amount",
          "type": "uint256"
        }
      ],
      "name": "createRequest",
      "outputs": [],
      "stateMutability": "nonpayable",
      "type": "function"
    },
    {
      "inputs": [
        {
          "internalType": "uint256",
          "name": "_requestId",
          "type": "uint256"
        }
      ],
      "name": "getOffers",
      "outputs": [
        {
          "components": [
            {
              "internalType": "address",
              "name": "seller",
              "type": "address"
            },
            {
              "internalType": "string",
              "name": "link",
              "type": "string"
            }
          ],
          "internalType": "struct BountyBasedNotes.Offer[]",
          "name": "",
          "type": "tuple[]"
        }
      ],
      "stateMutability": "view",
      "type": "function"
    },
    {
      "inputs": [
        {
          "internalType": "uint256",
          "name": "_requestId",
          "type": "uint256"
        }
      ],
      "name": "getRequest",
      "outputs": [
        {
          "internalType": "uint256",
          "name": "id",
          "type": "uint256"
        },
        {
          "internalType": "address",
          "name": "requester",
          "type": "address"
        },
        {
          "internalType": "string",
          "name": "title",
          "type": "string"
        },
        {
          "internalType": "string",
          "name": "description",
          "type": "string"
        },
        {
          "internalType": "uint256",
          "name": "reward",
          "type": "uint256"
        },
        {
          "internalType": "address",
          "name": "token",
          "type": "address"
        },
        {
          "internalType": "enum BountyBasedNotes.Status",
          "name": "status",
          "type": "uint8"
        }
      ],
      "stateMutability": "view",
      "type": "function"
    },
    {
      "inputs": [],
      "name": "getRequestCount",
      "outputs": [
        {
          "internalType": "uint256",
          "name": "",
          "type": "uint256"
        }
      ],
      "stateMutability": "view",
      "type": "function"
    },
    {
      "inputs": [
        {
          "internalType": "uint256",
          "name": "_requestId",
          "type": "uint256"
        },
        {
          "internalType": "string",
          "name": "_link",
          "type": "string"
        }
      ],
      "name": "offerNote",
      "outputs": [],
      "stateMutability": "nonpayable",
      "type": "function"
    },
    {
      "inputs": [
        {
          "internalType": "uint256",
          "name": "",
          "type": "uint256"
        },
        {
          "internalType": "uint256",
          "name": "",
          "type": "uint256"
        }
      ],
      "name": "offersByRequest",
      "outputs": [
        {
          "internalType": "address",
          "name": "seller",
          "type": "address"
        },
        {
          "internalType": "string",
          "name": "link",
          "type": "string"
        }
      ],
      "stateMutability": "view",
      "type": "function"
    },
    {
      "inputs": [
        {
          "internalType": "address",
          "name": "",
          "type": "address"
        }
      ],
      "name": "reputation",
      "outputs": [
        {
          "internalType": "uint256",
          "name": "",
          "type": "uint256"
        }
      ],
      "stateMutability": "view",
      "type": "function"
    },
    {
      "inputs": [
        {
          "internalType": "uint256",
          "name": "",
          "type": "uint256"
        }
      ],
      "name": "requests",
      "outputs": [
        {
          "internalType": "uint256",
          "name": "id",
          "type": "uint256"
        },
        {
          "internalType": "address",
          "name": "requester",
          "type": "address"
        },
        {
          "internalType": "string",
          "name": "title",
          "type": "string"
        },
        {
          "internalType": "string",
          "name": "description",
          "type": "string"
        },
        {
          "internalType": "uint256",
          "name": "reward",
          "type": "uint256"
        },
        {
          "internalType": "address",
          "name": "token",
          "type": "address"
        },
        {
          "internalType": "enum BountyBasedNotes.Status",
          "name": "status",
          "type": "uint8"
        }
      ],
      "stateMutability": "view",
      "type": "function"
    }
  ],
  "bytecode": "0x60806040526001600055348015601457600080fd5b50611833806100246000396000f3fe608060405234801561001057600080fd5b506004361061009e5760003560e01c8063b9f7945111610066578063b9f794511461012d578063c343c4101461014d578063c58343ef1461016d578063da784cd114610180578063dfa49e6f1461019357600080fd5b80631896e8d4146100a35780632f814278146100b85780633fad1834146100cb5780634f222b9d146100e657806381d12c5814610107575b600080fd5b6100b66100b1366004611256565b6101b3565b005b6100b66100c63660046112fa565b6105cc565b6100d3610862565b6040519081526020015b60405180910390f35b6100f96100f436600461138a565b610878565b6040516100dd9291906113f2565b61011a61011536600461141e565b610948565b6040516100dd979695949392919061144d565b6100d361013b3660046114d2565b60036020526000908152604090205481565b6100d361015b3660046114d2565b60046020526000908152604090205481565b61011a61017b36600461141e565b610aad565b6100b661018e3660046114f4565b610ca2565b6101a66101a136600461141e565b610fef565b6040516100dd9190611540565b6000838152600160205260408120805490910361020d5760405162461bcd60e51b8152602060048201526013602482015272536f6c696369747564206e6f2065786973746560681b60448201526064015b60405180910390fd5b60006005820154600160a01b900460ff16600181111561022f5761022f611437565b146102735760405162461bcd60e51b8152602060048201526014602482015273536f6c696369747564207961206365727261646160601b6044820152606401610204565b60018101546001600160a01b031633146102d95760405162461bcd60e51b815260206004820152602160248201527f536f6c6f20656c20736f6c69636974616e7465207075656465206163657074616044820152603960f91b6064820152608401610204565b60018260ff16101580156102f1575060058260ff1611155b61033d5760405162461bcd60e51b815260206004820152601e60248201527f526174696e67206d757374206265206265747765656e203120616e64203500006044820152606401610204565b600084815260026020526040812080548590811061035d5761035d6115c5565b60009182526020918290206040805180820190915260029092020180546001600160a01b03168252600181018054929391929184019161039c906115db565b80601f01602080910402602001604051908101604052809291908181526020018280546103c8906115db565b80156104155780601f106103ea57610100808354040283529160200191610415565b820191906000526020600020905b8154815290600101906020018083116103f857829003601f168201915b5050509190925250508151919250506001600160a01b031661046b5760405162461bcd60e51b815260206004820152600f60248201526e4f666572746120696e76616c69646160881b6044820152606401610204565b80516004830154600584015461048c926001600160a01b0390911691611108565b80516001600160a01b03166000908152600360205260408120805460ff861692906104b890849061162b565b909155505080516001600160a01b031660009081526004602052604081208054600192906104e790849061162b565b909155505080516001600160a01b03908116600090815260046020908152604080832054855190941683526003909152812054909161052591611644565b82516040518281529192506001600160a01b0316907ffc577563f1b9a0461e24abef1e1fcc0d33d3d881f20b5df6dda59de4aae2c8219060200160405180910390a260058301805460ff60a01b1916600160a01b179055815160048401546040519081526001600160a01b039091169087907fea555ab99331ceac5051c58f17cc7b411b30241b0e28cb93a7d3a24c77a7a9a99060200160405180910390a3505050505050565b6000811161061c5760405162461bcd60e51b815260206004820181905260248201527f4c61207265636f6d70656e7361206465626520736572206d61796f72206120306044820152606401610204565b6001600160a01b0382166106635760405162461bcd60e51b815260206004820152600e60248201526d546f6b656e20696e76616c69646f60901b6044820152606401610204565b6106786001600160a01b038316333084611142565b6000805490506040518060e00160405280828152602001336001600160a01b0316815260200188888080601f016020809104026020016040519081016040528093929190818152602001838380828437600092019190915250505090825250604080516020601f8901819004810282018101909252878152918101919088908890819084018382808284376000920182905250938552505050602082018590526001600160a01b0386166040830152606090910152600082815260016020818152604092839020845181559084015191810180546001600160a01b0319166001600160a01b039093169290921790915590820151600282019061077b90826116ca565b506060820151600382019061079090826116ca565b506080820151600482015560a08201516005820180546001600160a01b039092166001600160a01b031983168117825560c0850151926001600160a81b03191617600160a01b8360018111156107e8576107e8611437565b02179055509050506001600080828254610802919061162b565b92505081905550826001600160a01b0316336001600160a01b0316827f7d8fe2dc2d99ebd2aa1422ee9d7907db4042617c8a1a23bf4fb602668910fb598a8a87604051610851939291906117b2565b60405180910390a450505050505050565b6000600160005461087391906117d6565b905090565b6002602052816000526040600020818154811061089457600080fd5b6000918252602090912060029091020180546001820180546001600160a01b0390921694509192506108c5906115db565b80601f01602080910402602001604051908101604052809291908181526020018280546108f1906115db565b801561093e5780601f106109135761010080835404028352916020019161093e565b820191906000526020600020905b81548152906001019060200180831161092157829003601f168201915b5050505050905082565b60016020819052600091825260409091208054918101546002820180546001600160a01b03909216929161097b906115db565b80601f01602080910402602001604051908101604052809291908181526020018280546109a7906115db565b80156109f45780601f106109c9576101008083540402835291602001916109f4565b820191906000526020600020905b8154815290600101906020018083116109d757829003601f168201915b505050505090806003018054610a09906115db565b80601f0160208091040260200160405190810160405280929190818152602001828054610a35906115db565b8015610a825780601f10610a5757610100808354040283529160200191610a82565b820191906000526020600020905b815481529060010190602001808311610a6557829003601f168201915b5050505060048301546005909301549192916001600160a01b0381169150600160a01b900460ff1687565b6000818152600160208181526040808420815160e08101835281548152938101546001600160a01b0316928401929092526002820180548594606094859487948594859485949093909290840191610b04906115db565b80601f0160208091040260200160405190810160405280929190818152602001828054610b30906115db565b8015610b7d5780601f10610b5257610100808354040283529160200191610b7d565b820191906000526020600020905b815481529060010190602001808311610b6057829003601f168201915b50505050508152602001600382018054610b96906115db565b80601f0160208091040260200160405190810160405280929190818152602001828054610bc2906115db565b8015610c0f5780601f10610be457610100808354040283529160200191610c0f565b820191906000526020600020905b815481529060010190602001808311610bf257829003601f168201915b50505091835250506004820154602082015260058201546001600160a01b0381166040830152606090910190600160a01b900460ff166001811115610c5657610c56611437565b6001811115610c6757610c67611437565b9052508051602082015160408301516060840151608085015160a086015160c090960151949f939e50919c509a509850919650945092505050565b6000838152600160208181526040808420815160e08101835281548152938101546001600160a01b03169284019290925260028201805491840191610ce6906115db565b80601f0160208091040260200160405190810160405280929190818152602001828054610d12906115db565b8015610d5f5780601f10610d3457610100808354040283529160200191610d5f565b820191906000526020600020905b815481529060010190602001808311610d4257829003601f168201915b50505050508152602001600382018054610d78906115db565b80601f0160208091040260200160405190810160405280929190818152602001828054610da4906115db565b8015610df15780601f10610dc657610100808354040283529160200191610df1565b820191906000526020600020905b815481529060010190602001808311610dd457829003601f168201915b50505091835250506004820154602082015260058201546001600160a01b0381166040830152606090910190600160a01b900460ff166001811115610e3857610e38611437565b6001811115610e4957610e49611437565b9052508051909150600003610e965760405162461bcd60e51b8152602060048201526013602482015272536f6c696369747564206e6f2065786973746560681b6044820152606401610204565b60008160c001516001811115610eae57610eae611437565b14610eef5760405162461bcd60e51b8152602060048201526011602482015270536f6c696369747564206365727261646160781b6044820152606401610204565b600260008581526020019081526020016000206040518060400160405280336001600160a01b0316815260200185858080601f0160208091040260200160405190810160405280939291908181526020018383808284376000920182905250939094525050835460018082018655948252602091829020845160029092020180546001600160a01b0319166001600160a01b0390921691909117815590830151929390929083019150610fa290826116ca565b505050336001600160a01b0316847f85edd9b1e017e79853d10c8fbd176c1a8c881f637abe2cfc688aacc813b3539f8585604051610fe19291906117e9565b60405180910390a350505050565b606060026000838152602001908152602001600020805480602002602001604051908101604052809291908181526020016000905b828210156110fd576000848152602090819020604080518082019091526002850290910180546001600160a01b03168252600181018054929391929184019161106c906115db565b80601f0160208091040260200160405190810160405280929190818152602001828054611098906115db565b80156110e55780601f106110ba576101008083540402835291602001916110e5565b820191906000526020600020905b8154815290600101906020018083116110c857829003601f168201915b50505050508152505081526020019060010190611024565b505050509050919050565b611115838383600161117e565b61113d57604051635274afe760e01b81526001600160a01b0384166004820152602401610204565b505050565b6111508484848460016111e4565b61117857604051635274afe760e01b81526001600160a01b0385166004820152602401610204565b50505050565b60405163a9059cbb60e01b60008181526001600160a01b038616600452602485905291602083604481808b5af1925060016000511483166111d85783831516156111cb573d6000823e3d81fd5b6000873b113d1516831692505b60405250949350505050565b6040516323b872dd60e01b60008181526001600160a01b038781166004528616602452604485905291602083606481808c5af192506001600051148316611244578383151615611237573d6000823e3d81fd5b6000883b113d1516831692505b60405250600060605295945050505050565b60008060006060848603121561126b57600080fd5b8335925060208401359150604084013560ff8116811461128a57600080fd5b809150509250925092565b60008083601f8401126112a757600080fd5b50813567ffffffffffffffff8111156112bf57600080fd5b6020830191508360208285010111156112d757600080fd5b9250929050565b80356001600160a01b03811681146112f557600080fd5b919050565b6000806000806000806080878903121561131357600080fd5b863567ffffffffffffffff81111561132a57600080fd5b61133689828a01611295565b909750955050602087013567ffffffffffffffff81111561135657600080fd5b61136289828a01611295565b90955093506113759050604088016112de565b95989497509295919493606090920135925050565b6000806040838503121561139d57600080fd5b50508035926020909101359150565b6000815180845260005b818110156113d2576020818501810151868301820152016113b6565b506000602082860101526020601f19601f83011685010191505092915050565b6001600160a01b0383168152604060208201819052600090611416908301846113ac565b949350505050565b60006020828403121561143057600080fd5b5035919050565b634e487b7160e01b600052602160045260246000fd5b8781526001600160a01b038716602082015260e060408201819052600090611477908301886113ac565b828103606084015261148981886113ac565b608084018790526001600160a01b03861660a0850152915050600283106114c057634e487b7160e01b600052602160045260246000fd5b8260c083015298975050505050505050565b6000602082840312156114e457600080fd5b6114ed826112de565b9392505050565b60008060006040848603121561150957600080fd5b83359250602084013567ffffffffffffffff81111561152757600080fd5b61153386828701611295565b9497909650939450505050565b6000602082016020835280845180835260408501915060408160051b86010192506020860160005b828110156115b957868503603f19018452815180516001600160a01b031686526020908101516040918701829052906115a3908701826113ac565b9550506020938401939190910190600101611568565b50929695505050505050565b634e487b7160e01b600052603260045260246000fd5b600181811c908216806115ef57607f821691505b60208210810361160f57634e487b7160e01b600052602260045260246000fd5b50919050565b634e487b7160e01b600052601160045260246000fd5b8082018082111561163e5761163e611615565b92915050565b60008261166157634e487b7160e01b600052601260045260246000fd5b500490565b634e487b7160e01b600052604160045260246000fd5b601f82111561113d57806000526020600020601f840160051c810160208510156116a35750805b601f840160051c820191505b818110156116c357600081556001016116af565b5050505050565b815167ffffffffffffffff8111156116e4576116e4611666565b6116f8816116f284546115db565b8461167c565b6020601f82116001811461172c57600083156117145750848201515b600019600385901b1c1916600184901b1784556116c3565b600084815260208120601f198516915b8281101561175c578785015182556020948501946001909201910161173c565b508482101561177a5786840151600019600387901b60f8161c191681555b50505050600190811b01905550565b81835281816020850137506000828201602090810191909152601f909101601f19169091010190565b6040815260006117c6604083018587611789565b9050826020830152949350505050565b8181038181111561163e5761163e611615565b60208152600061141660208301848661178956fea2646970667358221220a834146284e68aaab182c040ca7231db385f81c9e91aa0e1c8071163772de0ad64736f6c634300081c0033",
  "linkReferences": {},
  "deployedLinkReferences": {}
}